:020000040800F2
:1000000000600020C93E0008113F0008113F0008B1
:10001000113F0008113F0008113F000800000000D8
:10002000000000000000000000000000113F000878
:10003000113F000800000000113F0008151B0008D8
:10004000113F0008113F0008113F0008113F000850
:10005000113F0008113F0008113F0008113F000840
:10006000113F0008113F0008113F0008113F000830
:10007000113F0008113F0008113F0008113F000820
:10008000113F0008113F0008113F00080000000068
:10009000000000000000000000000000113F000808
:1000A000113F0008113F0008113F0008113F0008F0
:1000B000113F0008113F0008113F0008113F0008E0
:1000C000113F0008113F0008113F0008113F0008D0
:1000D000113F0008113F000879200008113F000877
:1000E000113F0008113F0008113F0008113F0008B0
:1000F000113F0008113F0008000000000000000050
:100100000000000000000000113F0008113F00083F
:10011000113F0008113F0008113F0008491F000867
:10012000113F0008113F0008113F0008113F00086F
:10013000113F000800000000000000000000000067
:1001400000000000000000000000000000000000AF
:10015000000000000000000000000000000000009F
:10016000000000000000000000000000000000008F
:10017000000000000000000000000000000000007F
:10018000000000000000000000000000000000006F
:10019000000000000000000000000000000000005F
:1001A000000000000000000000000000000000004F
:1001B000000000000000000000000000000000003F
:1001C000000000000000000000000000000000002F
:1001D000000000000000000000000000000000001F
:0401E0005FF808F1CB
:1001E4000348044B834202D0034B03B118477047C2
:1001F400480200204802002000000000054806498B
:10020400091A891001EBD171491002D0034B03B1D3
:1002140018477047480200204802002000000000F0
:1002240010B5064C237843B9FFF7DAFF044B13B13A
:100234000448AFF300800123237010BD480200205E
:1002440000000000C83F000808B5044B1BB1044976
:100254000448AFF30080BDE80840CFE70000000089
:100264004C020020C83F000870B50D4E0D4D761BA2
:10027400B61006D00024013455F8043B9847A64232
:10028400F9D1094E094D03F091FE761BB61006D044
:100294000024013455F8043B9847A642F9D170BDB7
:1002A400C83F0008C83F0008CC3F0008C83F00080A
:1002B400032A70B414D940EA0105AD0704460B467D
:1002C40022D11D6826681946AE42204603F1040374
:1002D40004F1040418D1043A032A20461946F0D83C
:1002E400541E72B102780B789A4208BF641806D083
:1002F4000CE010F8012F11F8013F9A4206D1A142F7
:10030400F7D1002070BC7047541EEBE7D01A70BCC4
:10031400704700BF80B500AF01F084F800F022F907
:1003240001F093F900F04AFC01F01EFA00F048F8DD
:1003340001F00EFC00F0A2F900BF80BD80B500AF53
:1003440000F006FA01F0F2FB00BF80BD80B58CB06E
:1003540000AF174B5B69164A43F00103536115481C
:1003640002F040FA144B7B60144BBB600023FB602B
:1003740002233B6100237B618023BB614FF48073C4
:10038400FB614FF480633B6220237B624FF4005394
:10039400BB620023FB623B1D1946064802F0DEFAED
:1003A4000121044802F018FB00BF3037BD4680BD70
:1003B40000100240080002404C240140980600202E
:1003C40080B586B000AF01214FF4007002F08EFEBC
:1003D400002002F07FFD0023FB750DE0FA7D13463B
:1003E400DB009B1A9B002F4A13440021184601F09E
:1003F400ABF8FB7D0133FB75FB7D012BEED9FFF7D9
:10040400A5FF00233B6001233B7101237B714FF463
:100414006023BB600023FB6002233B743B46194608
:10042400214801F053FF0123BB7500237B7512E0C3
:100434007A7D1C491346DB009B1A9B000B440C334A
:100444001978BA7D531CBB750623174802F02DF8A2
:100454007B7D01337B757B7D012BE9D9012112481A
:1004640001F0A1FF0121104801F082FF0E4801F0C4
:10047400B5FF00BF0C4801F0C0FF0346002BF9D1C3
:10048400094801F0D1FF00BF074801F0DCFF034633
:10049400002BF9D10121044801F0ECFF00BF18370B
:1004A400BD4680BD000000200024014080B485B01A
:1004B40000AF78607B681B7B1A46174B33F8123009
:1004C400FB817B685A69FB891A447B685A617B68A3
:1004D4001B8B01339AB27B681A837B681B8BB3F541
:1004E400806F14D37B685B699B0A9AB27B681A821B
:1004F4007B681B8A094AA2FB0323DB089AB27B6848
:100504005A827B6800225A617B6800221A8300BFEA
:100514001437BD4680BC704798060020CDCCCCCCA7
:1005240080B500AF0348FFF7C1FF0348FFF7BEFFE4
:1005340000BF80BD000000201C00002080B400AF7C
:10054400024B5B8A1846BD4680BC70470000002001
:1005540080B400AF024BDB8D1846BD4680BC7047AB
:100564000000002080B582B000AF0023FB710DE0D5
:10057400FA7913465B0013449B00084A134448214C
:10058400184600F0E1FFFB790133FB710422FB798B
:100594009342EDD300BF0837BD4680BD380000202C
:1005A40080B500AF054801F026F80346002B01D0C2
:1005B400012300E00023184680BD00BF380000205E
:1005C40080B500AF054801F016F80346002B01D0B2
:1005D400012300E00023184680BD00BF4400002032
:1005E40080B500AF054801F006F80346002B01D0A2
:1005F400012300E00023184680BD00BF5000002006
:1006040080B500AF054800F0F6FF0346002B01D08B
:10061400012300E00023184680BD00BF5C000020D9
:1006240080B582B000AF0346FB71114B1B78FA7999
:100634009A4219D0FB79002B0FD000F081F901F018
:10064400EDFC0C4B1B88184600F042F80A4B1B8843
:10065400DBB2184600F01CF803E001F09DFC00F04A
:10066400A3F9034AFB79137000BF0837BD4680BD68
:1006740064020020660200206802002080B500AFFA
:100684000120FFF7CDFF0020FFF7CAFF00BF80BDA8
:1006940080B584B000AF0346FB71FB799AB20A4B74
:1006A4001B889A420CD0FB79084A32F81330FB813C
:1006B400FB89184601F036FCFB799AB2024B1A808A
:1006C40000BF1037BD4680BD6802002068000020CE
:1006D40080B582B000AF0346FB80084B1B88FA88C4
:1006E4009A4206D0FB88184601F072FC034AFB8844
:1006F400138000BF0837BD4680BD00BF66020020DE
:1007040080B500AF4FF48011002002F053FB0120AC
:1007140002F06EFB00BF392002F070FD0346002B8F
:10072400F9D0022002F074FB00BF02F08DFB0346F7
:10073400082BFAD1102002F087F9022002F068F9A0
:10074400002002F08FFB002002F0A8FB00BF80BD58
:1007540080B500AF02F0FCFAFFF7D2FF00BF80BD06
:1007640080B483B000AF78607B6800221A607B6835
:1007740000221A717B6800225A717B6800229A71E8
:100784007B6800221A727B680522DA717B6800227A
:100794005A727B684FF4FA625A8100BF0C37BD4627
:1007A40080BC704780B483B000AF78600B46FB70A8
:1007B4007B681A687B68DB889BB2591C88B27968AD
:1007C400C8801344FA781A707B68DB889BB27A6815
:1007D4009288B3FBF2F102FB01F29B1A9AB27B6896
:1007E400DA8000BF0C37BD4680BC704780B582B04C
:1007F40000AF786039603B68DBB219467868FFF770
:10080400D1FF3B681B0ADBB219467868FFF7CAFFC1
:100814003B681B0CDBB219467868FFF7C3FF3B68E3
:100824001B0EDBB219467868FFF7BCFF00BF083720
:10083400BD4680BD80B483B000AF78607B68DB8840
:100844009BB218460C37BD4680BC704780B485B057
:1008540000AF78607B681A687B681B899BB2591C5F
:1008640088B27968088113441B78FB737B681B8901
:100874009BB27A689288B3FBF2F102FB01F29B1AF5
:100884009AB27B681A81FB7B18461437BD4680BC3C
:10089400704780B483B000AF78607B68DB889AB21D
:1008A4007B681B899BB29A4201D0012300E000239C
:1008B40018460C37BD4680BC704780B582B000AF87
:1008C400786039607868FFF7E4FF0346002B08D0AE
:1008D4007868FFF7BBFF03461A463B681A7001238A
:1008E40000E0002318460837BD4680BD80B485B0BB
:1008F40000AF78600B467B8013463B800023FB737C
:100904007B88BB8112E07B681A68BB89591CB9815A
:1009140013441A78FB7B5340FB737B689A88BB892A
:10092400B3FBF2F102FB01F29B1ABB81BA893B884B
:100934009A42E8D1FB7B18461437BD4680BC704709
:1009440080B588B000AF0121012002F0CFFB012166
:100954004FF0005002F0E8FB124A07F1140307CAF3
:1009640083E8070007F114030021184600F0ECFDAA
:1009740000237B600023BB6000233B610023FB60FA
:100984003B1D1946002001F097FE0121002001F0D3
:10099400C5FE0121002001F0E5FE00BF2037BD4661
:1009A40080BD00BF143F000880B500AF00214FF0A8
:1009B400005002F0B9FB0021002001F0AFFE00213D
:1009C400002001F0CFFE00BF80BD80B582B000AF33
:1009D4000346FB80FB881946002001F0E9FE012153
:1009E400002001F0BFFE00BF0837BD4680BD80B5C2
:1009F40082B000AF78607B681C33184600F0D3FDEA
:100A04007B681C33184600F0BEFD00BF0837BD46A6
:100A140080BD80B584B000AF78600B46FB700723BF
:100A2400FB7329E0FA7897F90F3042FA03F303F0E5
:100A34000103DBB2002B05D07B680433184600F0B9
:100A4400B2FD04E07B680433184600F09CFD7B682B
:100A54001033184600F0A7FD7B681033184600F0E9
:100A640092FD7B680433184600F09DFD97F90F3022
:100A7400DBB2013BDBB2FB7397F90F30002BD1DA09
:100A840000BF1037BD4680BD80B582B000AF78602E
:100A94007B6804331021184600F056FD7B68103340
:100AA4001021184600F050FD7B681C3310211846B5
:100AB40000F04AFD00BF0837BD4680BD80B584B054
:100AC40000AF78600B467B8001237B737B681B78C7
:100AD400FB730023BB7327E0FA7B7B88114618461F
:100AE40000F0F4F903463B733B7B002B08D17B7B7E
:100AF400002B05D1FB7B002B02D00023BB7303E04A
:100B04003B7B0E4AD35CBB73FB7B01337A6892F860
:100B14002820934203D1BB7B43F00203BB73BB7B0E
:100B240019467868FFF775FFFB7B5A1EFA73002B92
:100B3400D2D100BF1037BD4680BD00BFA43F00081E
:100B440080B582B000AF78600B46FB707B6893F889
:100B54002830FA789A4211D07B681B78FA789A4246
:100B64000CD87B68FA7883F828207B685B8D19465B
:100B74007868FFF7A3FF7868FFF739FF00BF0837ED
:100B8400BD4680BD80B582B000AF78600B467B80E7
:100B94007B685B8D7A889A420BD07B687A885A8509
:100BA4007B685B8D19467868FFF788FF7868FFF7E4
:100BB4001EFF00BF0837BD4680BD000080B582B06F
:100BC40000AF0023FB710BE0FB792C2202FB03F343
:100BD400074A13441846FFF757FFFB790133FB71AB
:100BE4000422FB799342EFD300BF0837BD4680BD92
:100BF4003401002080B582B000AF0346FB80FB883F
:100C040019460348FFF7BEFF00BF0837BD4680BD45
:100C14003401002080B582B000AF0346FB80FB881E
:100C2400DBB219460348FFF78BFF00BF0837BD4608
:100C340080BD00BF3401002080B582B000AF034600
:100C4400FB80FB8819460348FFF79CFF00BF083769
:100C5400BD4680BD6001002080B582B000AF034670
:100C6400FB80FB88DBB219460348FFF769FF00BF2E
:100C74000837BD4680BD00BF6001002080B582B04A
:100C840000AF0346FB80FB8819460348FFF77AFF51
:100C940000BF0837BD4680BD8C01002080B582B0FE
:100CA40000AF0346FB80FB88DBB219460348FFF71D
:100CB40047FF00BF0837BD4680BD00BF8C01002040
:100CC40080B582B000AF0346FB80FB881946034819
:100CD400FFF758FF00BF0837BD4680BDB8010020AC
:100CE40080B582B000AF0346FB80FB88DBB21946B7
:100CF4000348FFF725FF00BF0837BD4680BD00BF8E
:100D0400B801002080B485B000AF78600B46FB705A
:100D1400494B1B78052B06D0484B1A78FB78534077
:100D2400DAB2464B1A70444B1B78052B76D801A2D5
:100D340052F823F0510D00085F0D0008A90D0008BA
:100D4400B70D0008DB0D0008050E0008FB78BB2B6F
:100D540068D1394B01221A7064E0FB78AA2B1DD1AB
:100D6400354B1B780133DAB2334B1A707B6800229F
:100D740083F80324314B00221A70304B1B7883F024
:100D84004403DB43DAB22D4B1A702C4B1B7883F0EF
:100D94005503DB43DAB2294B1A7046E0264B002296
:100DA4001A7042E07B68FA781A70234B03221A7097
:100DB4003BE07B68FA785A707B685B78002B06D03E
:100DC4001F4B00221A701C4B04221A702DE01A4B80
:100DD40005221A7029E01A4B1B785A1CD1B2184A02
:100DE40011701A467B681344FA789A707B685A78B3
:100DF400134B1B789A4217D80F4B05221A7013E035
:100E04000D4B00221A700D4B1B78FA789A4201D1CF
:100E140001230BE0094B1B78FB6006E0064B002224
:100E24001A7002E000BF00E000BF00231846143728
:100E3400BD4680BC704700BF6A02002070020020DB
:100E44007102002080B582B000AF78600B46FB7061
:100E54007868FFF7EFFC03461A460B4B1A80AB2168
:100E64007868FFF79FFCFB7819467868FFF79AFCCF
:100E74007868FFF7DFFC03461A46044B1A8000BF6C
:100E84000837BD4680BD00BF6C0200206E02002002
:100E940080B584B000AF78607868FFF7CBFC034678
:100EA400FB81094B1B88FA8919467868FFF71EFDF8
:100EB40003467B737B7B19467868FFF773FC00BF9E
:100EC4001037BD4680BD00BF6C020020B0B489B0AD
:100ED40000AF03460A46FB8013467B71134B07F1B0
:100EE40008041D460FCD0FC495E8030084E80300F1
:100EF400FA887B7901339B0007F120010B4453F8F6
:100F0400183CB2FBF3F103FB01F3D21A7B799B008B
:100F140007F120010B4453F8183CB2FBF3F3DBB2A6
:100F240018462437BD46B0BC704700BF203F0008B8
:100F340080B500AF01210548FFF784FF0348FFF7A0
:100F4400A7FF01F0D5F800BF80BD00BFE401002079
:100F540080B582B000AF0346FB7102210848FFF759
:100F640071FFFB7919460648FFF71CFC0448FFF79C
:100F74008FFF01F0BDF800BF0837BD4680BD00BF3C
:100F8400E401002080B582B000AF0346FB71052167
:100F94000848FFF757FFFB7919460648FFF702FC9C
:100FA4000448FFF775FF01F0A3F800BF0837BD46FA
:100FB40080BD00BFE401002080B582B000AF0346CD
:100FC4003960FB7103210A48FFF73CFFFB7919469E
:100FD4000748FFF7E7FB39680548FFF707FC0448B3
:100FE400FFF756FF01F084F800BF0837BD4680BD07
:100FF400E401002080B584B000AF786004210F487C
:10100400FFF720FF0023FB730BE0FB7B9B007A6858
:1010140013441B6819460948FFF7E8FBFB7B0133BF
:10102400FB73FB7B072BF0D90448FFF731FF01F07A
:101034005FF800BF1037BD4680BD00BFE40100204B
:1010440080B582B000AF0346FB71FB79072B33D820
:1010540001A252F823F000BF7D100008851000089B
:101064008D100008951000089D100008A5100008B8
:10107400AD100008B5100008FFF792FA03461CE013
:10108400FFF79EFA034618E0FFF7AAFA034614E0B6
:10109400FFF7B6FA034610E0FFF750FA03460CE0F8
:1010A400FFF756FA034608E000F058FD034604E053
:1010B40000F024FB034600E0002318460837BD4631
:1010C40080BD00BF80B582B000AF03463960FB71BC
:1010D400FB79083B132B00F2A18001A252F823F004
:1010E4001912000835110008411100084D110008BB
:1010F4005911000865110008711100087D110008DC
:101104008911000895110008A1110008AD1100080B
:10111400B9110008C5110008D1110008DD1100083B
:10112400E9110008F5110008011200080D12000869
:101134003B689BB2184600F093F971E03B689BB2A0
:10114400184600F0A3F96BE03B689BB2184600F028
:10115400B3F965E03B689BB2184600F0C3F95FE061
:101164003B689BB2184600F076FA59E03B689BB2A4
:10117400184600F07DFA53E03B689BB2184600F035
:1011840084FA4DE03B689BB2184600F08BFA47E0C6
:101194003B689BB21846FFF72DFD41E03B689BB2CC
:1011A4001846FFF737FD3BE03B689BB21846FFF754
:1011B40043FD35E03B689BB21846FFF74DFD2FE039
:1011C4003B689BB21846FFF759FD29E03B689BB288
:1011D4001846FFF763FD23E03B689BB21846FFF710
:1011E4006FFD1DE03B689BB21846FFF779FD17E0E1
:1011F4003B68DBB21846FFF74BFA11E03B689BB241
:101204001846FFF765FA0BE03B689BB21846FFF7F8
:10121400DCFB05E0386800F052FA01E0002300E04E
:10122400012318460837BD4680BD00BF90B585B080
:1012340000AF78600023FB730CE0FB7B9B007A68B3
:10124400D418FB7B1846FFF7FBFE03462360FB7BA9
:101254000133FB73FB7B072BEFD900BF1437BD466B
:1012640090BD80B588B000AF3B461846FFF7DEFF5F
:101274003B461846FFF7BEFE00BF2037BD4680BD83
:1012840080B586B000AF03463960FB711346BB805E
:10129400FB79013B042B5FD801A252F823F000BF75
:1012A400B9120008EF120008E91200081913000827
:1012B400BF120008FFF73CFE52E0BB88022B03D0AC
:1012C4000220FFF745FE4BE03B681A78264B1A7064
:1012D4003B685A78254B1A70234B1B781846FFF746
:1012E40051FE3DE0FFF7BDFF3AE0BB88012B0DD175
:1012F4003B681B78BB73BB7B1846FFF7A1FEB86045
:10130400BB7BB9681846FFF757FE29E00220FFF7B8
:101314001FFE25E0BB88052B1AD13B681B78FB75A3
:101324003B6801331B683B61FB7D39691846FFF755
:10133400C9FE0346FB73FB7B002B05D0FB7D39699B
:101344001846FFF739FE0BE00320FFF701FE07E024
:101354000220FFF7FDFD03E00120FFF7F9FD00BFC8
:1013640000BF1837BD4680BD72020020FC0100207A
:10137400B0B58AB000AF234B1B78002B36D0224B7C
:101384001B781946214800F069FC0346002B2DD038
:101394003B1D1846FFF74AFF3B1D20221C491846F7
:1013A400FEF786FF78627B6A002B1FD0184B1D4620
:1013B4003C1D0FCC0FC594E80F0085E80F003B1DC2
:1013C4001846FFF717FE11E0124B1B781946124816
:1013D400FFF798FC0346002B08D00F4B18780E4BF0
:1013E4005B789BB21A460D49FFF74AFF09490C483E
:1013F400FFF763FA0346002BE6D100BF2837BD464A
:10140400B0BD00BF72020020FC0100207C19002046
:101414005C19002073020020740200207602002070
:10142400F001002080B582B000AF0023FB710DE015
:10143400FA7913465B0013449B00084A13441021B5
:10144400184600F081F8FB790133FB710422FB7923
:101454009342EDD300BF0837BD4680BD0002002093
:1014640080B582B000AF0346FB80FB88002B0CBF25
:1014740001230023DBB21946034800F0A4F800BF9F
:101484000837BD4680BD00BF0002002080B582B091
:1014940000AF0346FB80FB88002B0CBF0123002315
:1014A400DBB21946034800F08EF800BF0837BD468A
:1014B40080BD00BF0C02002080B582B000AF03469F
:1014C400FB80FB88002B0CBF01230023DBB21946F1
:1014D400034800F078F800BF0837BD4680BD00BF60
:1014E4001802002080B582B000AF0346FB80FB8861
:1014F400002B0CBF01230023DBB21946034800F084
:1015040062F800BF0837BD4680BD00BF240200203A
:1015140080B582B000AF00F084F800F08AF800F0E3
:101524008EF8FEF7FDFFFAE780B500AF0121012038
:1015340001F0DCFD0121034801F08AFB00F0E8FD25
:1015440000BF80BD0002300080B584B000AF786079
:101554000B46FB707B689B680121184601F0C6FDB1
:101564007B689B88BB81FB78FB730323BB737B681D
:101574001B6807F10C021146184601F07DFA00BF02
:101584001037BD4680BD80B582B000AF78607B68FF
:1015940018687B689B880022194601F042FB00BF53
:1015A4000837BD4680BD80B582B000AF78607B68E7
:1015B40018687B689B880122194601F032FB00BF42
:1015C4000837BD4680BD80B582B000AF78600B4659
:1015D400FB70FB78002B02D0012B04D007E0786865
:1015E400FFF7E1FF03E07868FFF7CDFF00BF00BF1E
:1015F4000837BD4680BD80B582B000AF78607B6897
:101604001A687B689B881946104601F0F1FA034674
:10161400002B01D0002300E0012318460837BD4603
:1016240080BD80B500AFFEF789FEFFF77DFF00BFE8
:1016340080BD80B500AFFEF76DFE00BF80BD80B5F4
:1016440000AFFFF795FE00BF80BD80B500AF00F08E
:101654001BFB00BF80BD80B582B000AF0346FB809A
:10166400FB88184600F0BEFB00BF0837BD4680BDAE
:1016740080B582B000AF0346FB80FB88184600F0BB
:10168400D9FB00BF0837BD4680BD80B582B000AF2E
:101694000346FB80FB88184600F0F4FB00BF0837C4
:1016A400BD4680BD80B582B000AF0346FB80FB8899
:1016B400184600F00FFC00BF0837BD4680BD80B55A
:1016C40082B000AF786001214FF0006001F02CFD82
:1016D40001214FF0805001F027FD012001F028FB8B
:1016E40001F062FE786801F02DFE01F05DFE00203D
:1016F40001F01EFB00BF0837BD4680BD80B500AFBA
:1017040001F00AFE0346184680BD80B500AF0121F2
:101714004FF0C05001F008FD012001F009FB00F07A
:101724008DFF012001F0F2FB00BF412001F066FDB6
:101734000346002BF9D04FF4807001F007FC012020
:1017440001F016FC01F040FE01F02EFE0121012003
:1017540001F09CFD01F028FE47F6FF7001F00AFE3F
:1017640001F022FE00BF80BD80B500AF1C48FEF72B
:10177400F7FF01214FF0006001F0D6FC01214FF08A
:10178400805001F0D1FC042000F07EFF03461A468D
:101794004AF2A9539A420ED0FFF7B7FF01F004FEB4
:1017A400002001F0CFFD01F0FFFD4AF2A951042011
:1017B40000F04EFF10E07B2001F020FD0346002BDB
:1017C40002D17A2001F01AFD01F0FEFD0121012071
:1017D40001F05CFD01F0E8FD01F04AFD00BF80BDB1
:1017E4008019002080B58EB000AF274A07F114039A
:1017F40007CA83E8070007F1140318211846FFF706
:10180400A3FE224A07F1200307CA83E8070007F171
:10181400200318211846FFF797FE1D4A07F12C03F1
:1018240007CA83E8070007F12C0318211846FFF7BD
:101834008BFE01214FF4804001F076FC4FF400430D
:101844003B8000237B804FF40063BB800023FB803C
:1018540000233B8100237B813823BB810023FB8150
:1018640007233B823B4619460A4801F0C5FD012186
:10187400084801F02FFE0121064801F000FE00BFD8
:101884003837BD4680BD00BF383F0008443F0008DC
:10189400503F00080038004080B58AB000AF204AAD
:1018A4003B4607CA83E807003B461846FFF77BFE22
:1018B4001C4B1B889BB21B4A43F482739BB213805C
:1018C40000BF0121174801F024FE0346002BF8D085
:1018D400134A07F10C0307CA83E8070007F10C0356
:1018E4001846FFF760FE0F4801F0E8FD0346FB844D
:1018F4000B4A07F1180307CA83E8070007F1180326
:101904001846FFF750FE074B1B889BB2054A23F489
:1019140082739BB21380FB8C18462837BD4680BD6A
:10192400383F00080038004080B500AF174B1B68F3
:10193400164A43F001031360144B5A681349144BBD
:1019440013404B60114B1B68104A23F0847323F43B
:10195400803313600D4B1B680C4A23F480231360FF
:101964000A4B5B68094A23F4FE035360074B4FF4A8
:101974001F029A60054B0022DA6200F00DF8054B55
:101984004FF000629A6000BF80BD00BF00100240AB
:101994000000FFF800ED00E080B500AF00F002F8B1
:1019A40000BF80BD80B483B000AF00237B60002300
:1019B4003B60304B1B682F4A43F4803313602D4B3C
:1019C4001B6803F400333B607B6801337B603B6836
:1019D400002B03D17B68B3F5A06FF0D1254B1B68B6
:1019E40003F40033002B02D001233B6001E0002309
:1019F4003B603B68012B37D11E4B1E4A5B6853602A
:101A04001C4B1C4A5B6853601A4B1A4A5B68536050
:101A1400184B5B68174A23F47C135360154B5B68BF
:101A2400144A43F498135360124B1B68114A43F051
:101A34008073136000BF0F4B1B6803F00073002B0F
:101A4400F9D00C4B5B680B4A23F003035360094B3A
:101A54005B68084A43F00203536000BF054B5B68B0
:101A640003F00C03082BF9D100BF0C37BD4680BC32
:101A7400704700BF0010024080B483B000AF03463B
:101A84003960FB7197F90730002B0BDA3B68DAB247
:101A94000C49FB7903F00F03043B1201D2B20B444F
:101AA4001A7609E03B68DAB2074997F90730120160
:101AB400D2B20B4483F8002300BF0C37BD4680BC70
:101AC400704700BF00ED00E000E100E080B582B0A7
:101AD40000AF78607B68B3F1807F01D3012311E00C
:101AE4007B6823F07F43094A013B53600F214FF089
:101AF400FF30FFF7C1FF054B00229A60034B07221A
:101B04001A60002318460837BD4680BD10E000E087
:101B140080B400AF044B1B680133034A136000BF59
:101B2400BD4680BC704700BF9406002080B500AF5E
:101B340040F6B830FFF7CAFF0346002B01D000235C
:101B440004E06FF0040000F0A5FB0123184680BDFB
:101B540080B500AFFFF746FE00BF80BD80B582B000
:101B640000AF6421244800F079F80346002B3CD0F0
:101B740000237B60FFF790FE03467B807B8803F0A5
:101B84000403002B01D1002331E07B88DB089BB2E6
:101B94007B607B6840F2712202FB03F37B607B680D
:101BA400164AA2FB03239B097B60154B1A687B68CA
:101BB4001344134A1360134B1B88132B0FD9104B78
:101BC4001B68104A1288B3FBF2F39BB21A460E4B01
:101BD4001A600B4B00221A600A4B00221A80094B30
:101BE4001B8801339AB2074B1A80074B1B681846AF
:101BF4000837BD4680BD00BF78060020D34D621073
:101C04007C060020800600208406002080B483B077
:101C140000AF7860044B1A687B681A6000BF0C3709
:101C2400BD4680BC704700BF9406002080B483B0DA
:101C340000AF78603960084B1A687B681B68D31A58
:101C44003A689A4201D2012300E0002318460C3777
:101C5400BD4680BC704700BF9406002080B582B0AA
:101C640000AF7860396039687868FFF7DFFF0346B2
:101C7400002B04D07868FFF7C9FF012300E000239C
:101C840018460837BD4680BD80B594B000AF012129
:101C9400102001F02BFA0121012001F027FA012183
:101CA4004A4800F0D5FF4A4A07F1200307CA83E8EF
:101CB400070007F1200318211846FFF745FC454AA1
:101CC40007F12C0307CA83E8070007F12C03182146
:101CD4001846FFF739FC404A07F1380307CA83E87E
:101CE400070007F1380318211846FFF72DFC3B4A7B
:101CF40007F1440307CA83E8070007F144031821E6
:101D04001846FFF721FC0121022001F00DFA40F2F0
:101D1400E7333B830323BB8200237B830023FB82C3
:101D240007F1140319462E4801F00EFC6023BB8012
:101D34000123FB8000237B810023BB813B1D1946CB
:101D4400274801F07DFC0821254801F0DCFE6023D2
:101D5400BB800123FB8000237B810023BB813B1DCF
:101D640019461F4801F0F8FC08211D4801F0E6FE61
:101D74006023BB800123FB8000237B810023BB8184
:101D84003B1D1946164801F06FFD0821144801F067
:101D9400F2FE6023BB800123FB8000237B810023B0
:101DA400BB813B1D19460E4801F0E4FD08210C4897
:101DB40001F0FCFE01210A4801F086FE01210848D9
:101DC40001F040FE00BF5037BD4680BD000C1A0034
:101DD4005C3F0008683F0008743F0008803F00082B
:101DE4000004004080B586B000AF0346FB800F4B73
:101DF4001B88FA889A4214D0FB88FB8160233B81BC
:101E040001237B8100233B8207F10803194608481C
:101E140001F016FC0821064801F075FE034AFB8810
:101E2400138000BF1837BD4680BD00BF8806002060
:101E34000004004080B586B000AF0346FB800F4B22
:101E44001B88FA889A4214D0FB88FB8160233B816B
:101E540001237B8100233B8207F1080319460848CC
:101E640001F07AFC0821064801F068FE034AFB8869
:101E7400138000BF1837BD4680BD00BF8A0600200E
:101E84000004004080B586B000AF0346FB800F4BD2
:101E94001B88FA889A4214D0FB88FB8160233B811B
:101EA40001237B8100233B8207F10803194608487C
:101EB40001F0DAFC0821064801F05DFE034AFB88C4
:101EC400138000BF1837BD4680BD00BF8C060020BC
:101ED4000004004080B586B000AF0346FB800F4B82
:101EE4001B88FA889A4214D0FB88FB8160233B81CB
:101EF40001237B8100233B8207F10803194608482C
:101F040001F038FD0821064801F050FE034AFB8821
:101F1400138000BF1837BD4680BD00BF8E06002069
:101F24000004004080B483B000AF0346FB80044A41
:101F3400FB88138000BF0C37BD4680BC704700BFD0
:101F44009006002080B500AF0121104801F04BFE3F
:101F54000346002B17D001210C4801F06DFE0C4BF9
:101F64001B78C3F10103DAB2094B1A70084B1B78D2
:101F7400002B05D0074B1B881846FEF726FD02E010
:101F84000020FEF722FD00BF80BD00BF001400400A
:101F9400300200209006002080B500AF0A4B1B7869
:101FA400002B0FD000220121084801F06AFD002116
:101FB400064801F047FD0021202001F0B5F8024B4E
:101FC40000221A7000BF80BD920600200014004059
:101FD40080B586B000AF0346FB80FB88002B15D08C
:101FE40000F01CF80B23BB810023FB81FB88094A0A
:101FF400B2FBF3F39BB2013B9BB23B8200237B8297
:1020040007F10C031946044801F09EFA00BF183783
:10201400BD4680BD40420F000014004080B582B030
:1020240000AF124B1B78002B1BD10121202001F0A3
:102034007BF837233B7101237B710423BB7101239C
:10204400FB713B1D184600F0C3F80122012108482A
:1020540001F017FD0121064801F0F4FC034B0122B5
:102064001A7000BF0837BD4680BD00BF920600202D
:102074000014004080B582B000AF194B1B889BB29E
:1020840003F08003002B14D016491748FEF715FC03
:102094000346002B05D0134B1A78114B92B29A8049
:1020A40007E00F4B9B899BB20D4A23F080039BB240
:1020B40093810B4B1B889BB27B60094B1B889BB2A3
:1020C40003F02003002B07D0054B9B889BB2DBB2A7
:1020D40019460648FEF766FB00BF0837BD4680BDBB
:1020E4000044004093060020E4010020F001002099
:1020F40080B400AF054B9B899BB2044A43F0800334
:102104009BB2938100BFBD4680BC70470044004031
:1021140080B58CB000AF2B4801F09EFD2A4A07F130
:10212400180307CA83E8070007F1180318211846A3
:10213400FFF70AFA254A07F1240307CA83E80700D0
:1021440007F1240304211846FFF7FEF926233B7503
:1021540000237B750023BB750123FB7507F1140372
:10216400184600F035F801214FF4003000F0DCFF90
:102174004FF496437B6000233B8100237B81002343
:10218400BB8100233B820C23FB813B1D19460D4878
:1021940001F0BEFD0B4B9B899BB20A4A43F08003BE
:1021A4009BB29381074B9B899BB2064A43F0200361
:1021B4009BB293810121034801F064FE00BF3037D4
:1021C400BD4680BD004400408C3F0008983F000895
:1021D40080B487B000AF786000237B6100233B614B
:1021E4000F23FB607B68DB78002B3AD0274BDB683E
:1021F400DB431B0A03F007037B617B69C3F1040320
:102204003B61FA687B6922FA03F3FB607B685B78C5
:102214001A463B6902FA03F37B617B689B781A4692
:10222400FB6813407A6913437B617B691B017B6103
:10223400174A7B681B787969C9B213440A4683F844
:1022440000237B681B7803F01F0311497A68127816
:102254005209D2B21046012202FA03F341F82030A7
:102264000FE07B681B7803F01F0309497A68127832
:102274005209D2B2104601229A4000F1200341F8DB
:10228400232000BF1C37BD4680BC704700ED00E032
:1022940000E100E080B483B000AF78607B68042B79
:1022A40006D1094B1B68084A43F00403136005E098
:1022B400054B1B68044A23F00403136000BF0C376A
:1022C400BD4680BC704700BF10E000E080B485B01C
:1022D40000AF786039600023FB600023FB727B68E9
:1022E4005B68FB60FB6823F4702323F48073FB605A
:1022F4003B681A683B681B791B021343FA68134353
:10230400FB607B68FA685A607B689B68FB60FA68CC
:10231400164B1340FB603B68DA683B689B681A43C2
:102324003B685B795B001343FA681343FB607B688B
:10233400FA689A607B68DB6AFB60FB6823F47003CD
:10234400FB603B681B7C013BDAB2FB7A1343FB72F4
:10235400FB7A1B05FA681343FB607B68FA68DA6250
:1023640000BF1437BD4680BC704700BFFDF7F1FFC6
:1023740080B483B000AF78600B46FB70FB78002B11
:1023840006D07B689B6843F001027B689A6005E095
:102394007B689B6823F001027B689A6000BF0C375E
:1023A400BD4680BC704780B483B000AF78600B46F4
:1023B400FB70FB78002B06D07B689B6843F480722B
:1023C4007B689A6005E07B689B6823F480727B6875
:1023D4009A6000BF0C37BD4680BC704780B483B0A0
:1023E40000AF78607B689B6843F008027B689A6062
:1023F40000BF0C37BD4680BC704780B485B000AFC9
:1024040078600023FB737B689B6803F00803002B50
:1024140002D00123FB7301E00023FB73FB7B18460E
:102424001437BD4680BC704780B483B000AF786079
:102434007B689B6843F004027B689A6000BF0C379A
:10244400BD4680BC704780B485B000AF786000237F
:10245400FB737B689B6803F00403002B02D0012309
:10246400FB7301E00023FB73FB7B18461437BD4666
:1024740080BC704780B483B000AF78600B46FB70BB
:10248400FB78002B06D07B689B6843F4A0027B6832
:102494009A6005E07B689B6823F4A0027B689A60DD
:1024A40000BF0C37BD4680BC704780B485B000AF18
:1024B4007860084611461A460346FB700B46BB700B
:1024C40013467B700023FB600023BB60FB78092B61
:1024D40023D97B68DB68FB60FB78A3F10A0213460F
:1024E4005B001344072202FA03F3BB60BB68DB43BF
:1024F400FA681340FB607978FB78A3F10A0213466B
:102504005B00134401FA03F3BB60FA68BB6813432E
:10251400FB607B68FA68DA601EE07B681B69FB601D
:10252400FA7813465B001344072202FA03F3BB60F4
:10253400BB68DB43FA681340FB607978FA7813468A
:102544005B00134401FA03F3BB60FA68BB681343EE
:10255400FB607B68FA681A61BB78062B21D87B681C
:102564005B6BFB60BB785A1E13469B0013441F220F
:1025740002FA03F3BB60BB68DB43FA681340FB60F9
:10258400F978BB785A1E13469B00134401FA03F3EF
:10259400BB60FA68BB681343FB607B68FA685A63E4
:1025A40047E0BB780C2B21D87B681B6BFB60BB78A6
:1025B400DA1F13469B0013441F2202FA03F3BB6085
:1025C400BB68DB43FA681340FB60F978BB78DA1F19
:1025D40013469B00134401FA03F3BB60FA68BB681B
:1025E4001343FB607B68FA681A6322E07B68DB6A4A
:1025F400FB60BB78A3F10D0213469B0013441F221A
:1026040002FA03F3BB60BB68DB43FA681340FB6068
:10261400F978BB78A3F10D0213469B00134401FA29
:1026240003F3BB60FA68BB681343FB607B68FA681A
:10263400DA6200BF1437BD4680BC704780B500AF76
:10264400012000F0CBFD002000F0C8FD00BF80BDDC
:1026540080B485B000AF03460A46FB801346BB80B6
:102664000023FB60074BFB60FA88FB681344FB60A4
:10267400FB681A46BB88136000BF1437BD4680BC94
:10268400704700BF006C004080B485B000AF0346C3
:10269400FB800023FB60074BFB60FA88FB68134454
:1026A400FB60FB681B889BB218461437BD4680BC90
:1026B400704700BF006C004080B485B000AF786004
:1026C40039600023FB600023BB60134B1B68FB6075
:1026D40040F6FE727B6802FA03F3DB43FA681340A8
:1026E400FB603B681A683B685B681A433B689B68FD
:1026F4001A433B68DB681343BB60BA687B6802FA21
:1027040003F3FA681343FB60034AFB68136000BFDA
:102714001437BD4680BC70470074004080B483B059
:1027240000AF78600B46FB70FB78002B09D00C4B94
:102734001A6801217B6801FA03F3094913430B600A
:1027440009E0074B1A6801217B6801FA03F3DB43B4
:10275400034913400B6000BF0C37BD4680BC704773
:102764000074004080B483B000AF78600B46FB7007
:10277400FB78002B0AD00D4B5A687B681B0901219A
:1027840001FA03F3094913434B600AE0074B5A6803
:102794007B681B09012101FA03F3DB43034913405E
:1027A4004B6000BF0C37BD4680BC704700740040CE
:1027B40080B485B000AF78600B467B800023FB605B
:1027C400074BFB60FA687B6813440833FB60FB68C3
:1027D4001A467B88136000BF1437BD4680BC70471F
:1027E4000074004080B483B000AF78607B681A68DE
:1027F4004FF6FE7313407A6813607B6800221A60F8
:102804007B6800225A607B6800229A607B68002201
:10281400DA607B68434A934206D1434B5B68424A81
:1028240043F00F03536077E07B68404A934206D13C
:102834003D4B5B683C4A43F0F00353606CE07B68BB
:102844003B4A934206D1384B5B68374A43F4706382
:10285400536061E07B68374A934206D1324B5B6830
:10286400314A43F47043536056E07B68324A9342E2
:1028740006D12D4B5B682C4A43F4702353604BE024
:102884007B682E4A934206D1274B5B68264A43F461
:102894007003536040E07B68294A934206D1224B7F
:1028A4005B68214A43F07063536035E07B68254AD6
:1028B400934206D1244B5B68234A43F00F035360D1
:1028C4002AE07B68214A934206D11F4B5B681E4A6B
:1028D40043F0F00353601FE07B681D4A934206D126
:1028E400194B5B68184A43F47063536014E07B68C7
:1028F400184A934206D1144B5B68134A43F470435D
:10290400536009E07B68144A934205D10E4B5B681F
:102914000D4A43F47023536000BF0C37BD4680BC9E
:10292400704700BF08000240000002401C00024043
:102934003000024044000240580002406C00024053
:102944008000024008040240000402401C040240CB
:1029540030040240440402405804024080B485B06C
:1029640000AF786039600023FB607B681B68FB6004
:10297400FB6823F4FF4323F07003FB603B689A6811
:102984003B681B6A1A433B681B691A433B685B69D3
:102994001A433B689B691A433B68DB691A433B68EB
:1029A4005B6A1A433B689B6A1343FA681343FB60F0
:1029B4007B68FA681A603B68DA687B685A603B682F
:1029C4001A687B689A603B685A687B68DA6000BF63
:1029D4001437BD4680BC704780B483B000AF7860C4
:1029E4000B46FB70FB78002B06D07B681B6843F01A
:1029F40001027B681A6006E07B681A684FF6FE7372
:102A040013407A68136000BF0C37BD4680BC704722
:102A140080B485B000AF78600023FB60094B1B686D
:102A2400FB60FB6803F03803FB60FA687B681343C0
:102A3400FB60044AFB68136000BF1437BD4680BCCA
:102A4400704700BF0020024080B483B000AF7860BC
:102A5400084B1B68074A23F010031360054B1A68E0
:102A640004497B6813430B6000BF0C37BD4680BC30
:102A7400704700BF0020024080B489B000AF786086
:102A840039600023FB6100233B610023BB61002309
:102A9400FB6000237B610023BB603B68DB7803F0B1
:102AA4000F03FB613B68DB7803F01003002B05D0B8
:102AB4003B689B781A46FB691343FB613B681B88A0
:102AC400DBB2002B44D07B681B687B610023BB61B5
:102AD40038E00122BB6902FA03F3FB603B681B8800
:102AE4001A46FB6813403B613A69FB689A4226D157
:102AF400BB699B00FB600F22FB6802FA03F3BB6017
:102B0400BB68DB437A6913407B61FA69FB6802FAAC
:102B140003F37A6913437B613B68DB78282B05D187
:102B24000122BB699A407B685A6108E03B68DB7804
:102B3400482B04D10122BB699A407B681A61BB69A6
:102B44000133BB61BB69072BC3D97B687A691A60FF
:102B54003B681B88FF2B46D97B685B687B6100233D
:102B6400BB613AE0BB690833012202FA03F3FB605C
:102B74003B681B881A46FB6813403B613A69FB6853
:102B84009A4227D1BB699B00FB600F22FB6802FAC3
:102B940003F3BB60BB68DB437A6913407B61FA696A
:102BA400FB6802FA03F37A6913437B613B68DB78C1
:102BB400282B05D1BB69083301229A407B685A61EE
:102BC4003B68DB78482B05D1BB69083301229A4066
:102BD4007B681A61BB690133BB61BB69072BC1D92F
:102BE4007B687A695A6000BF2437BD4680BC704751
:102BF40080B485B000AF78600B467B800023FB7304
:102C04007B689A687B881340002B02D00123FB73F6
:102C140001E00023FB73FB7B18461437BD4680BCE0
:102C2400704780B483B000AF78600B467B80134656
:102C34007B707B78002B03D07A887B681A6102E072
:102C44007A887B685A6100BF0C37BD4680BC7047E8
:102C540080B487B000AF78600B46FB7000233B6103
:102C64000023FB6000237B610023BB607B68002B97
:102C740003DA2E4BDB697B6102E02C4B5B687B61E2
:102C84007B681B0C03F00F03BB607B689BB23B614A
:102C94007B6803F44013B3F5401F0AD17B6923F02A
:102CA40070637B61214B5B68204A23F0706353603F
:102CB40021E07B6803F48013002B0ED00322BB6851
:102CC40002FA03F3FB60FB68DB437A6913407B6120
:102CD4007B6943F070637B610DE07B685B0D1B01D6
:102CE4003A6902FA03F3DB437A6913407B617B6937
:102CF40043F070637B61FB78002B08D07B685B0D2D
:102D04001B013A6902FA03F37A6913437B617B6816
:102D1400002B03DA054A7B69D36102E0034A7B692D
:102D2400536000BF1C37BD4680BC704700000140A3
:102D340080B483B000AF0346FB71044AFB7913608F
:102D440000BF0C37BD4680BC704700BF20000E4258
:102D540080B400AF154B1B68144A43F001031360A1
:102D6400124B5A681149124B13404B600F4B1B68AE
:102D74000E4A23F0847323F4803313600B4B1B68D7
:102D84000A4A23F480231360084B5B68074A23F440
:102D9400FE035360054B4FF41F029A60034B00225D
:102DA400DA6200BFBD4680BC704700BF001002401D
:102DB4000000FFF880B485B000AF7860396000236C
:102DC400FB600A4B5B68FB60FB6823F47413FB60D5
:102DD4007A683B681343FA681343FB60034AFB6851
:102DE400536000BF1437BD4680BC704700100240DA
:102DF40080B483B000AF0346FB71044AFB791360CF
:102E040000BF0C37BD4680BC704700BF6000424223
:102E140080B485B000AF78600023FB60094B5B6829
:102E2400FB60FB6823F00303FB60FA687B681343D1
:102E3400FB60044AFB68536000BF1437BD4680BC86
:102E4400704700BF0010024080B400AF044B5B68C1
:102E5400DBB203F00C03DBB21846BD4680BC7047FE
:102E64000010024080B485B000AF78600023FB609E
:102E7400094B5B68FB60FB6823F4E063FB60FA6862
:102E84007B681343FB60044AFB68536000BF14373C
:102E9400BD4680BC704700BF0010024080B485B0BE
:102EA40000AF78600023FB60094B5B68FB60FB6844
:102EB40023F46053FB607B68DB00FA681343FB6018
:102EC400034AFB68536000BF1437BD4680BC70479B
:102ED4000010024080B485B000AF78600023FB602E
:102EE400094B5B68FB60FB6823F44043FB60FA68B2
:102EF4007B681343FB60044AFB68536000BF1437CC
:102F0400BD4680BC704700BF0010024080B483B04F
:102F140000AF0346FB710C4B00221A700A4B0022CF
:102F24001A70FB79012B02D0042B04D007E0064B66
:102F340001221A7003E0044B05221A7000BF00BF7F
:102F44000C37BD4680BC70472010024080B483B06B
:102F540000AF7860054B1A6A04497B6813430B621F
:102F640000BF0C37BD4680BC704700BF0010024054
:102F740080B483B000AF0346FB71044AFB7913604D
:102F840000BF0C37BD4680BC704700BF3C044242C2
:102F940080B489B000AF78600023FB610023BB617B
:102FA40000237B6100233B610023FB604A4B5B6889
:102FB40003F00C03FB61FB69042B07D0082B09D039
:102FC400002B2FD17B68454A1A602FE07B68434A67
:102FD4001A602BE0404B5B6803F47013BB613E4BFB
:102FE4005B6803F480337B61BB699B0C0233BB6178
:102FF4007B69002B06D1BB69394A02FB03F27B686B
:103004001A6013E0344BDB6A03F00F030133FB60F7
:10301400324AFB68B2FBF3F3BA6902FB03F27B6842
:103024001A6003E07B682D4A1A6000BF2A4B5B6874
:1030340003F0F003FB61FB691B09FB61294AFB698F
:1030440013441B78DBB23B617B681A683B69DA4046
:103054007B685A60204B5B6803F4E063FB61FB69A7
:103064001B0AFB611F4AFB6913441B78DBB23B61FB
:103074007B685A683B69DA407B689A60164B5B68E8
:1030840003F46053FB61FB69DB0AFB61154AFB69CE
:1030940013441B78DBB23B617B685A683B69DA40B6
:1030A4007B68DA600C4B5B6803F44043FB61FB69AB
:1030B4009B0BFB610C4AFB6913441B78DBB23B613D
:1030C4007B68DA683B69B2FBF3F27B681A6100BF84
:1030D4002437BD4680BC70470010024000127A00BD
:1030E40000093D00340200204402002080B483B073
:1030F40000AF78600B46FB70FB78002B06D0094BC1
:103104009A6908497B6813438B6106E0054B9A6909
:103114007B68DB43034913408B6100BF0C37BD461A
:1031240080BC70470010024080B483B000AF786068
:103134000B46FB70FB78002B06D0094BDA69084973
:103144007B681343CB6106E0054BDA697B68DB439C
:1031540003491340CB6100BF0C37BD4680BC7047A8
:103164000010024080B483B000AF78600B46FB705F
:10317400FB78002B06D0094BDA6808497B681343B7
:10318400CB6006E0054BDA687B68DB4303491340F8
:10319400CB6000BF0C37BD4680BC704700100240B6
:1031A40080B483B000AF78600B46FB70FB78002BD3
:1031B40006D0094B1A6908497B6813430B6106E082
:1031C400054B1A697B68DB43034913400B6100BF5D
:1031D4000C37BD4680BC70470010024080B483B0F9
:1031E40000AF0346FB71044AFB79136000BF0C3740
:1031F400BD4680BC704700BF4004424280B487B0E3
:1032040000AF0346FB710023FB6000237B610023B6
:10321400FB74FB795B09DBB2FB60FB68012B03D118
:10322400124B1B687B6109E0FB68022B03D10F4B37
:103234001B6A7B6102E00D4B5B6A7B61FB7903F0E7
:103244001F03FB607A69FB6822FA03F303F00103AE
:10325400002B02D00123FB7401E00023FB74FB7CF0
:1032640018461C37BD4680BC704700BF00100240A2
:1032740080B400AF044B5B6A034A43F0807353622B
:1032840000BFBD4680BC70470010024080B483B0CC
:1032940000AF03460A46FB8013467B717B79002B03
:1032A40008D00C4B1B889AB20A49FB8813439BB283
:1032B4000B8009E0074B1B889AB2FB88DB439BB267
:1032C400044913409BB20B8000BF0C37BD4680BC41
:1032D400704700BF0028004080B400AF054B9B88B6
:1032E4009BB2044A43F010039BB2938000BFBD46D7
:1032F40080BC70470028004080B400AF054B9B8819
:103304009BB2044A23F010039BB2938000BFBD46D6
:1033140080BC70470028004080B483B000AF002315
:10332400FB80074B9B8BFB80054B1B8B9BB21A04CA
:10333400FB88134318460C37BD4680BC704700BF5A
:103344000028004080B582B000AF7860FFF7C4FF6A
:103354007B681A0C064B92B21A83054B7A6892B2B8
:103364009A83FFF7C9FF00BF0837BD4680BD00BF81
:103374000028004080B582B000AF7860FFF7ACFF52
:103384007B681B0C9BB2074A03F00F039BB21381AB
:10339400044B7A6892B29A81FFF7AEFF00BF0837F8
:1033A400BD4680BD0028004080B400AF00BF054B7F
:1033B4009B889BB203F02003002BF8D000BFBD46CE
:1033C40080BC70470028004080B400AF094B9B8844
:1033D4009BB2084A23F008039BB2938000BF054BBD
:1033E4009B889BB203F00803002BF8D000BFBD46B6
:1033F40080BC70470028004080B485B000AF78607E
:1034040039600023FB817B681B88FB81FB8903F403
:103414004153FB813B681A883B685B8813439AB22B
:103424003B689B8813439AB23B68DB8813439AB288
:103434003B681B8913439AB23B685B8913439AB276
:103444003B689B8913439AB23B68DB8913439AB266
:10345400FB891343FB817B68FA891A807B689B8B09
:103464009BB223F400639AB27B689A833B681A8AFE
:103474007B681A8200BF1437BD4680BC704780B495
:1034840083B000AF78600B46FB70FB78002B08D04C
:103494007B681B889BB243F040039AB27B681A8016
:1034A40007E07B681B889BB223F040039AB27B68D9
:1034B4001A8000BF0C37BD4680BC704780B483B00F
:1034C40000AF78607B689B899BB218460C37BD4679
:1034D40080BC704780B483B000AF78600B46FB704B
:1034E400FB78002B08D07B689B889BB243F00403D5
:1034F4009AB27B689A8007E07B689B889BB223F032
:1035040004039AB27B689A8000BF0C37BD4680BC26
:10351400704780B485B000AF78600B467B80002391
:10352400FB737B681B899AB27B8813409BB2002B88
:1035340002D00123FB7301E00023FB73FB7B1846DD
:103544001437BD4680BC704780B485B000AF786046
:1035540039600023FB817B681B88FB817B682E4AD2
:10356400934213D07B682D4A93420FD07B68B3F10A
:10357400804F0BD07B682A4A934207D07B68294A44
:10358400934203D07B68284A934208D1FB8923F0F5
:103594007003FB813B685A88FB891343FB817B687A
:1035A400224A93420CD07B68214A934208D0FB897B
:1035B40023F44073FB813B68DA88FB891343FB8166
:1035C4007B68FA891A803B689A887B689A853B688D
:1035D4001A887B681A857B680F4A93420FD07B68F0
:1035E4000E4A93420BD07B68124A934207D07B6801
:1035F400114A934203D07B68104A934204D13B683A
:103604001B7A9AB27B681A867B6801229A8200BF71
:103614001437BD4680BC7047002C01400034014083
:103624000004004000080040000C0040001000406E
:1036340000140040004001400044014000480140A3
:1036440080B485B000AF7860396000237B810023AB
:10365400FB810023BB817B681B8C9BB223F001039D
:103664009AB27B681A847B681B8CFB817B689B887D
:10367400BB817B681B8B7B817B8923F070037B81FF
:103684007B8923F003037B813B681A887B8913437E
:103694007B81FB8923F00203FB813B681A89FB8948
:1036A4001343FB813B685A88FB891343FB817B6886
:1036B400244A93420FD07B68234A93420BD07B6801
:1036C400224A934207D07B68214A934203D07B6805
:1036D400204A934223D1FB8923F00803FB813B68F2
:1036E4005A89FB891343FB81FB8923F00403FB8183
:1036F4003B689A88FB891343FB81BB8923F480735D
:10370400BB81BB8923F40073BB813B689A89BB8965
:103714001343BB813B68DA89BB891343BB817B6854
:10372400BA899A807B687A891A833B68DA887B68CD
:103734009A867B68FA891A8400BF1437BD4680BC18
:10374400704700BF002C014000340140004001409C
:10375400004401400048014080B485B000AF786067
:10376400396000237B810023FB810023BB817B68BC
:103774001B8C9BB223F010039AB27B681A847B687B
:103784001B8CFB817B689B88BB817B681B8B7B814B
:103794007B8923F4E0437B817B8923F440737B8121
:1037A4003B681B881B029AB27B8913437B81FB898C
:1037B40023F02003FB813B681B891B019AB2FB8920
:1037C4001343FB813B685B881B019AB2FB8913435B
:1037D400FB817B68224A934203D07B68214A93424F
:1037E4002BD1FB8923F08003FB813B685B891B01A0
:1037F4009AB2FB891343FB81FB8923F04003FB81CD
:103804003B689B881B019AB2FB891343FB81BB89EC
:1038140023F48063BB81BB8923F40063BB813B68D1
:103824009B899B009AB2BB891343BB813B68DB89AC
:103834009B009AB2BB891343BB817B68BA899A8087
:103844007B687A891A833B68DA887B681A877B6885
:10385400FA891A8400BF1437BD4680BC704700BF84
:10386400002C01400034014080B485B000AF786082
:10387400396000237B810023FB810023BB817B68AB
:103884001B8C9BB223F480739AB27B681A847B6886
:103894001B8CFB817B689B88BB817B689B8B7B81BA
:1038A4007B8923F070037B817B8923F003037B8175
:1038B4003B681A887B8913437B81FB8923F400735B
:1038C400FB813B681B891B029AB2FB891343FB8172
:1038D4003B685B881B029AB2FB891343FB817B68BC
:1038E400224A934203D07B68214A93422BD1FB891D
:1038F40023F40063FB813B685B891B029AB2FB895A
:103904001343FB81FB8923F48063FB813B689B8821
:103914001B029AB2FB891343FB81BB8923F48053B6
:10392400BB81BB8923F40053BB813B689B891B018A
:103934009AB2BB891343BB813B68DB891B019AB2F2
:10394400BB891343BB817B68BA899A807B687A8977
:103954009A833B68DA887B689A877B68FA891A8439
:1039640000BF1437BD4680BC704700BF002C014027
:103974000034014080B485B000AF78603960002322
:10398400BB8100237B810023FB817B681B8C9BB262
:1039940023F480539AB27B681A847B681B8C7B81E6
:1039A4007B689B88FB817B689B8BBB81BB8923F4F1
:1039B400E043BB81BB8923F44073BB813B681B8814
:1039C4001B029AB2BB891343BB817B8923F4005346
:1039D4007B813B681B891B039AB27B8913437B81E0
:1039E4003B685B881B039AB27B8913437B817B68AA
:1039F400124A934203D07B68114A93420AD1FB894D
:103A040023F48043FB813B689B899B019AB2FB8929
:103A14001343FB817B68FA899A807B68BA899A830D
:103A24003B68DA887B68A3F840207B687A891A842B
:103A340000BF1437BD4680BC704700BF002C014056
:103A44000034014080B483B000AF78600B46FB7053
:103A5400FB78002B08D07B681B889BB243F00103E2
:103A64009AB27B681A8007E07B681B889BB223F0BC
:103A740001039AB27B681A8000BF0C37BD4680BC34
:103A8400704780B483B000AF78600B467B801346E8
:103A94007B707B78002B08D07B689B899AB27B88EB
:103AA40013439AB27B689A8109E07B689B899AB236
:103AB4007B88DB439BB213409AB27B689A8100BF38
:103AC4000C37BD4680BC704780B483B000AF7860CB
:103AD4000B46FB70FB78002B08D07B681B889BB2DD
:103AE40043F080039AB27B681A8007E07B681B88E6
:103AF4009BB223F080039AB27B681A8000BF0C3714
:103B0400BD4680BC704780B485B000AF78600B467A
:103B14007B800023FB817B681B8BFB81FB8923F06B
:103B24000803FB81FA897B881343FB817B68FA894C
:103B34001A8300BF1437BD4680BC704780B485B07B
:103B440000AF78600B467B800023FB817B681B8B76
:103B5400FB81FB8923F40063FB817B881B029AB2FF
:103B6400FB891343FB817B68FA891A8300BF1437EE
:103B7400BD4680BC704780B485B000AF78600B460A
:103B84007B800023FB817B689B8BFB81FB8923F07B
:103B94000803FB81FA897B881343FB817B68FA89DC
:103BA4009A8300BF1437BD4680BC704780B485B08B
:103BB40000AF78600B467B800023FB817B689B8B86
:103BC400FB81FB8923F40063FB817B881B029AB28F
:103BD400FB891343FB817B68FA899A8300BF1437FE
:103BE400BD4680BC704780B485B000AF78600B469A
:103BF4007B800023FB730023BB8100237B817B68D4
:103C04001B8A9AB27B881340BB817B689B899AB2DA
:103C14007B8813407B81BB89002B05D07B89002BDB
:103C240002D00123FB7301E00023FB73FB7B1846E6
:103C34001437BD4680BC704780B483B000AF786051
:103C44000B467B807B88DB439AB27B681A8200BF79
:103C54000C37BD4680BC704780B582B000AF786039
:103C64007B68264A93420AD101214FF48040FFF732
:103C740079FA00214FF48040FFF774FA3AE07B6848
:103C84001F4A93420AD101214FF40030FFF788FA0A
:103C940000214FF40030FFF783FA2BE07B68194AC8
:103CA40093420AD101214FF48020FFF779FA0021D1
:103CB4004FF48020FFF774FA1CE07B68124A9342A9
:103CC4000AD101214FF40020FFF76AFA00214FF4D2
:103CD4000020FFF765FA0DE07B680C4A934209D196
:103CE40001214FF48010FFF75BFA00214FF480109C
:103CF400FFF756FA00BF0837BD4680BD00380140C3
:103D04000044004000480040004C00400050004087
:103D140080B58CB000AF786039600023FB6200236B
:103D2400BB6200237B6200233B620023FB617B6850
:103D3400FB617B681B8A9BB2FB62FA6A4CF6FF73D9
:103D44001340FB623B68DB881A46FB6A1343FB6241
:103D5400FB6A9AB27B681A827B689B899BB2FB627E
:103D6400FA6A4EF6F3131340FB623B689A883B6889
:103D74001B8913439AB23B685B8913439BB21A466F
:103D8400FB6A1343FB62FB6A9AB27B689A817B6885
:103D94009B8A9BB2FB62FA6A4FF6FF431340FB62B5
:103DA4003B689B891A46FB6A1343FB62FB6A9AB21F
:103DB4007B689A8207F108031846FFF7E9F8FB6964
:103DC4002E4A934202D17B69BB6201E03B69BB622C
:103DD4007B689B899BB21BB2002B0CDABA6A134630
:103DE4009B0013449A001A443B681B685B00B2FBB7
:103DF400F3F37B620BE0BA6A13469B0013449A0008
:103E04001A443B681B689B00B2FBF3F37B627B6A3A
:103E14001B4AA2FB03235B091B01FB62FB6A1B0910
:103E2400642202FB03F37A6AD31A3B627B689B89A0
:103E34009BB21BB2002B0CDA3B6ADB003233104A14
:103E4400A2FB03235B0903F00703FA6A1343FB6233
:103E54000BE03B6A1B013233094AA2FB03235B09D3
:103E640003F00F03FA6A1343FB62FB6A9AB27B689E
:103E74001A8100BF3037BD4680BD00BF0038014005
:103E84001F85EB5180B483B000AF78600B46FB70A4
:103E9400FB78002B08D07B689B899BB243F40053CA
:103EA4009AB27B689A8107E07B689B899BB223F472
:103EB40000539AB27B689A8100BF0C37BD4680BC20
:103EC400704700000C4D0D4C03E02B682360043553
:103ED40004340B4B9C42F8D10A4C02E000232360CB
:103EE4000434094B9C42F9D1FDF71EFDFCF7BCF9E3
:103EF400FDF70EFBFEE700BFD03F000800000020E6
:103F040048020020480200208C190020FEE700002F
:103F1400000801401000000004000000010000003F
:103F24000A00000064000000E803000010270000FD
:103F3400A0860100000C01400010000008000000F1
:103F4400000C01400020000008000000000C0140AB
:103F54000080000008000000001001404000000044
:103F6400100000000010014080000000100000005C
:103F7400001001400001000010000000001001408A
:103F840000020000100000000008014004000000CE
:103F940004000000000801400800000004000000C4
:103FA4007D05B9ADC5ECFC25FDED0000F8B500BFFD
:103FB400F8BC08BC9E467047F8B500BFF8BC08BC06
:043FC4009E4670475E
:043FC8004D0200089E
:043FCC0025020008C2
:103FD0000008014001000000040000000000000093
:103FE0000000000000000000000000000008014088
:103FF00002000000040000000100000000000000BA
:104000000000000000000000000C01400001000062
:1040100008000000000C0140000200000800000041
:10402000000C01400004000008000000000C0140EA
:10403000000800000800000000000504F2049605D6
:1040400017068306E10634077F07C5070408400802
:104050007808AC08DE080E093B0967099009B80921
:10406000DF09040A280A4B0A6D0A8E0AAE0ACD0A35
:10407000EB0A090B260B420B5D0B780B930BAD0B78
:10408000C60BDF0BF70B0F0C270C3E0C550C6B0C03
:10409000810C970CAC0CC10CD60CEA0CFE0C120D6A
:1040A000260D390D4C0D5F0D710D840D960DA80D6B
:1040B000B90DCB0DDC0DED0DFE0D0F0E1F0E2F0EED
:1040C000400E500E5F0E6F0E7F0E8E0E9D0EAC0ECC
:1040D000BB0ECA0ED90EE70EF60E040F120F200FFC
:1040E0002E0F3C0F4A0F570F650F720F800F8D0F69
:1040F0009A0FA70FB40FC00FCD0FDA0FE60FF30F13
:10410000FF0F000004000000000C01402000000030
:1041100008000000000C0140400000000800000002
:10412000000C01408000000008000000FF000000BB
:104130000400000000100140020000001000000018
:1041400000100140040000001000000000100140B9
:104150000800000010000000FF0000000400000044
:10416000000C01400100000008000000000C0140AC
:104170000200000008000000000C014004000000E4
:1041800008000000FF0000000400000000080140DB
:104190000020000004000000000801400040000072
:1041A000040000000008014000800000040000003E
:1041B000FF0000009C0600206009000000000000D5
:1041C0009C060020600900000000000014000000B0
:1041D0000008014000010000040000000008014048
:1041E000000200000400000000080140000400007C
:1041F0000400000000080140000800000400000066
:104200000100000000000000010203040102030499
:08421000060708090204060874
:0400000508003EC9E8
:00000001FF
